{
  "contractName": "EnstarV1Factory",
  "abi": [
    {
      "inputs": [
        {
          "internalType": "address",
          "name": "_admin",
          "type": "address"
        }
      ],
      "stateMutability": "nonpayable",
      "type": "constructor"
    },
    {
      "anonymous": false,
      "inputs": [
        {
          "indexed": false,
          "internalType": "string",
          "name": "name",
          "type": "string"
        },
        {
          "indexed": false,
          "internalType": "bytes",
          "name": "name_code",
          "type": "bytes"
        },
        {
          "indexed": false,
          "internalType": "address",
          "name": "project",
          "type": "address"
        },
        {
          "indexed": false,
          "internalType": "uint256",
          "name": "",
          "type": "uint256"
        }
      ],
      "name": "ProjectCreated",
      "type": "event"
    },
    {
      "inputs": [],
      "name": "admin",
      "outputs": [
        {
          "internalType": "address",
          "name": "",
          "type": "address"
        }
      ],
      "stateMutability": "view",
      "type": "function",
      "constant": true
    },
    {
      "inputs": [
        {
          "internalType": "uint256",
          "name": "",
          "type": "uint256"
        }
      ],
      "name": "allProjects",
      "outputs": [
        {
          "internalType": "address",
          "name": "",
          "type": "address"
        }
      ],
      "stateMutability": "view",
      "type": "function",
      "constant": true
    },
    {
      "inputs": [
        {
          "internalType": "bytes",
          "name": "",
          "type": "bytes"
        }
      ],
      "name": "getProject",
      "outputs": [
        {
          "internalType": "address",
          "name": "",
          "type": "address"
        }
      ],
      "stateMutability": "view",
      "type": "function",
      "constant": true
    },
    {
      "inputs": [
        {
          "internalType": "uint256",
          "name": "",
          "type": "uint256"
        }
      ],
      "name": "project_name",
      "outputs": [
        {
          "internalType": "bytes",
          "name": "",
          "type": "bytes"
        }
      ],
      "stateMutability": "view",
      "type": "function",
      "constant": true
    },
    {
      "inputs": [],
      "name": "allProjectsLength",
      "outputs": [
        {
          "internalType": "uint256",
          "name": "",
          "type": "uint256"
        }
      ],
      "stateMutability": "view",
      "type": "function",
      "constant": true
    },
    {
      "inputs": [
        {
          "internalType": "string",
          "name": "_name",
          "type": "string"
        }
      ],
      "name": "isProjectExist",
      "outputs": [
        {
          "internalType": "bool",
          "name": "",
          "type": "bool"
        }
      ],
      "stateMutability": "view",
      "type": "function",
      "constant": true
    },
    {
      "inputs": [
        {
          "internalType": "string",
          "name": "_name",
          "type": "string"
        }
      ],
      "name": "getAddressByName",
      "outputs": [
        {
          "internalType": "address",
          "name": "",
          "type": "address"
        }
      ],
      "stateMutability": "view",
      "type": "function",
      "constant": true
    },
    {
      "inputs": [],
      "name": "getAllProject",
      "outputs": [
        {
          "internalType": "bytes[]",
          "name": "",
          "type": "bytes[]"
        }
      ],
      "stateMutability": "view",
      "type": "function",
      "constant": true
    },
    {
      "inputs": [
        {
          "components": [
            {
              "internalType": "string",
              "name": "name",
              "type": "string"
            },
            {
              "internalType": "string",
              "name": "introduction",
              "type": "string"
            },
            {
              "internalType": "string",
              "name": "operate",
              "type": "string"
            },
            {
              "internalType": "uint256",
              "name": "amount",
              "type": "uint256"
            },
            {
              "internalType": "uint256",
              "name": "create_time",
              "type": "uint256"
            },
            {
              "internalType": "address",
              "name": "account",
              "type": "address"
            },
            {
              "internalType": "uint256",
              "name": "balance",
              "type": "uint256"
            },
            {
              "internalType": "string",
              "name": "website",
              "type": "string"
            },
            {
              "internalType": "string",
              "name": "creator",
              "type": "string"
            },
            {
              "internalType": "string",
              "name": "country",
              "type": "string"
            },
            {
              "internalType": "string",
              "name": "province",
              "type": "string"
            },
            {
              "internalType": "string",
              "name": "city",
              "type": "string"
            }
          ],
          "internalType": "struct IEnstarV1Project.Project",
          "name": "_project",
          "type": "tuple"
        }
      ],
      "name": "createProject",
      "outputs": [
        {
          "internalType": "address",
          "name": "project_address",
          "type": "address"
        }
      ],
      "stateMutability": "nonpayable",
      "type": "function"
    },
    {
      "inputs": [
        {
          "internalType": "address",
          "name": "_admin",
          "type": "address"
        }
      ],
      "name": "setAdmin",
      "outputs": [],
      "stateMutability": "nonpayable",
      "type": "function"
    },
    {
      "inputs": [
        {
          "internalType": "address",
          "name": "_erc20Addr",
          "type": "address"
        },
        {
          "internalType": "address",
          "name": "_project",
          "type": "address"
        },
        {
          "internalType": "uint256",
          "name": "_amount",
          "type": "uint256"
        }
      ],
      "name": "investorWithdraw",
      "outputs": [
        {
          "internalType": "bool",
          "name": "",
          "type": "bool"
        }
      ],
      "stateMutability": "nonpayable",
      "type": "function"
    },
    {
      "inputs": [
        {
          "internalType": "address",
          "name": "_erc20Addr",
          "type": "address"
        },
        {
          "internalType": "address",
          "name": "_project",
          "type": "address"
        }
      ],
      "name": "projectWithdraw",
      "outputs": [
        {
          "internalType": "bool",
          "name": "",
          "type": "bool"
        }
      ],
      "stateMutability": "nonpayable",
      "type": "function"
    }
  ],
  "bytecode": "0x60806040523480156200001157600080fd5b50604051620043b1380380620043b183398181016040528101906200003791906200015a565b600073ffffffffffffffffffffffffffffffffffffffff168173ffffffffffffffffffffffffffffffffffffffff1603620000a9576040517f08c379a0000000000000000000000000000000000000000000000000000000008152600401620000a090620001ed565b60405180910390fd5b806000806101000a81548173ffffffffffffffffffffffffffffffffffffffff021916908373ffffffffffffffffffffffffffffffffffffffff160217905550506200020f565b600080fd5b600073ffffffffffffffffffffffffffffffffffffffff82169050919050565b60006200012282620000f5565b9050919050565b620001348162000115565b81146200014057600080fd5b50565b600081519050620001548162000129565b92915050565b600060208284031215620001735762000172620000f0565b5b6000620001838482850162000143565b91505092915050565b600082825260208201905092915050565b7f456e737461723a205a45524f5f41444452455353000000000000000000000000600082015250565b6000620001d56014836200018c565b9150620001e2826200019d565b602082019050919050565b600060208201905081810360008301526200020881620001c6565b9050919050565b614192806200021f6000396000f3fe60806040523480156200001157600080fd5b5060043610620000c45760003560e01c8063905522cc116200007b578063905522cc14620001e35780639a65ddec1462000219578063c0baa37b146200024f578063d70ed4981462000285578063db526baa14620002a7578063f851a44014620002dd57620000c4565b806307379ec514620000c95780632481c62714620000ff5780633509d2e8146200013557806353b3194c1462000157578063704b6c02146200018d57806381513fb014620001ad575b600080fd5b620000e76004803603810190620000e19190620010f9565b620002ff565b604051620000f691906200115b565b60405180910390f35b6200011d600480360381019062000117919062001178565b6200072a565b6040516200012c9190620011f1565b60405180910390f35b6200013f620007b8565b6040516200014e91906200121f565b60405180910390f35b6200017560048036038101906200016f91906200123c565b620007c5565b6040516200018491906200115b565b60405180910390f35b620001ab6004803603810190620001a591906200126e565b62000805565b005b620001cb6004803603810190620001c5919062001354565b620008d9565b604051620001da91906200115b565b60405180910390f35b620002016004803603810190620001fb91906200140e565b62000922565b604051620002109190620011f1565b60405180910390f35b6200023760048036038101906200023191906200140e565b620009d4565b6040516200024691906200115b565b60405180910390f35b6200026d600480360381019062000267919062001463565b62000a4d565b6040516200027c9190620011f1565b60405180910390f35b6200028f62000ad8565b6040516200029e919062001603565b60405180910390f35b620002c56004803603810190620002bf91906200123c565b62000bbb565b604051620002d4919062001679565b60405180910390f35b620002e762000c70565b604051620002f691906200115b565b60405180910390f35b60006040516020016200031290620016d2565b6040516020818303038152906040528051906020012082600001516040516020016200033f91906200172b565b604051602081830303815290604052805190602001200362000398576040517f08c379a00000000000000000000000000000000000000000000000000000000081526004016200038f90620017a5565b60405180910390fd5b600060405180602001620003ac9062000c94565b6020820181038252601f19601f82011660405250905060008133604051602001620003d891906200115b565b604051602081830303815290604052604051602001620003fa92919062001809565b60405160208183030381529060405290506000846000015160405160200162000424919062001872565b6040516020818303038152906040529050600081805190602001209050600073ffffffffffffffffffffffffffffffffffffffff166003836040516200046b919062001896565b908152602001604051809103902060009054906101000a900473ffffffffffffffffffffffffffffffffffffffff1673ffffffffffffffffffffffffffffffffffffffff1614620004f3576040517f08c379a0000000000000000000000000000000000000000000000000000000008152600401620004ea90620017a5565b60405180910390fd5b808351602085016000f59450600073ffffffffffffffffffffffffffffffffffffffff168573ffffffffffffffffffffffffffffffffffffffff160362000571576040517f08c379a00000000000000000000000000000000000000000000000000000000081526004016200056890620018ff565b60405180910390fd5b8460038360405162000584919062001896565b908152602001604051809103902060006101000a81548173ffffffffffffffffffffffffffffffffffffffff021916908373ffffffffffffffffffffffffffffffffffffffff1602179055506001859080600181540180825580915050600190039060005260206000200160009091909190916101000a81548173ffffffffffffffffffffffffffffffffffffffff021916908373ffffffffffffffffffffffffffffffffffffffff16021790555060028290806001815401808255809150506001900390600052602060002001600090919091909150908162000669919062001b57565b508473ffffffffffffffffffffffffffffffffffffffff16639961cea7876040518263ffffffff1660e01b8152600401620006a5919062001dff565b600060405180830381600087803b158015620006c057600080fd5b505af1158015620006d5573d6000803e3d6000fd5b505050507fddf141631a1ce862934cffb9487c3bc5fe3ef21427cd8f789662f35fc0905f7a8660000151838760018054905060405162000719949392919062001e23565b60405180910390a150505050919050565b60008273ffffffffffffffffffffffffffffffffffffffff16630e07044685846040518363ffffffff1660e01b81526004016200076992919062001e7e565b6020604051808303816000875af115801562000789573d6000803e3d6000fd5b505050506040513d601f19601f82011682018060405250810190620007af919062001edc565b90509392505050565b6000600180549050905090565b60018181548110620007d657600080fd5b906000526020600020016000915054906101000a900473ffffffffffffffffffffffffffffffffffffffff1681565b3373ffffffffffffffffffffffffffffffffffffffff1660008054906101000a900473ffffffffffffffffffffffffffffffffffffffff1673ffffffffffffffffffffffffffffffffffffffff161462000896576040517f08c379a00000000000000000000000000000000000000000000000000000000081526004016200088d9062001f5e565b60405180910390fd5b806000806101000a81548173ffffffffffffffffffffffffffffffffffffffff021916908373ffffffffffffffffffffffffffffffffffffffff16021790555050565b6003818051602081018201805184825260208301602085012081835280955050505050506000915054906101000a900473ffffffffffffffffffffffffffffffffffffffff1681565b60008083836040516020016200093a92919062001fb3565b6040516020818303038152906040529050600073ffffffffffffffffffffffffffffffffffffffff1660038260405162000975919062001896565b908152602001604051809103902060009054906101000a900473ffffffffffffffffffffffffffffffffffffffff1673ffffffffffffffffffffffffffffffffffffffff1603620009c8576000620009cb565b60015b91505092915050565b6000808383604051602001620009ec92919062001fb3565b6040516020818303038152906040529050600060038260405162000a11919062001896565b908152602001604051809103902060009054906101000a900473ffffffffffffffffffffffffffffffffffffffff169050809250505092915050565b60008173ffffffffffffffffffffffffffffffffffffffff1663610fda86846040518263ffffffff1660e01b815260040162000a8a91906200115b565b6020604051808303816000875af115801562000aaa573d6000803e3d6000fd5b505050506040513d601f19601f8201168201806040525081019062000ad0919062001edc565b905092915050565b60606002805480602002602001604051908101604052809291908181526020016000905b8282101562000bb257838290600052602060002001805462000b1e9062001950565b80601f016020809104026020016040519081016040528092919081815260200182805462000b4c9062001950565b801562000b9d5780601f1062000b715761010080835404028352916020019162000b9d565b820191906000526020600020905b81548152906001019060200180831162000b7f57829003601f168201915b50505050508152602001906001019062000afc565b50505050905090565b6002818154811062000bcc57600080fd5b90600052602060002001600091509050805462000be99062001950565b80601f016020809104026020016040519081016040528092919081815260200182805462000c179062001950565b801562000c685780601f1062000c3c5761010080835404028352916020019162000c68565b820191906000526020600020905b81548152906001019060200180831162000c4a57829003601f168201915b505050505081565b60008054906101000a900473ffffffffffffffffffffffffffffffffffffffff1681565b6121838062001fda83390190565b6000604051905090565b600080fd5b600080fd5b600080fd5b6000601f19601f8301169050919050565b7f4e487b7100000000000000000000000000000000000000000000000000000000600052604160045260246000fd5b62000d068262000cbb565b810181811067ffffffffffffffff8211171562000d285762000d2762000ccc565b5b80604052505050565b600062000d3d62000ca2565b905062000d4b828262000cfb565b919050565b600080fd5b600080fd5b600080fd5b600067ffffffffffffffff82111562000d7d5762000d7c62000ccc565b5b62000d888262000cbb565b9050602081019050919050565b82818337600083830152505050565b600062000dbb62000db58462000d5f565b62000d31565b90508281526020810184848401111562000dda5762000dd962000d5a565b5b62000de784828562000d95565b509392505050565b600082601f83011262000e075762000e0662000d55565b5b813562000e1984826020860162000da4565b91505092915050565b6000819050919050565b62000e378162000e22565b811462000e4357600080fd5b50565b60008135905062000e578162000e2c565b92915050565b600073ffffffffffffffffffffffffffffffffffffffff82169050919050565b600062000e8a8262000e5d565b9050919050565b62000e9c8162000e7d565b811462000ea857600080fd5b50565b60008135905062000ebc8162000e91565b92915050565b6000610180828403121562000edc5762000edb62000cb6565b5b62000ee961018062000d31565b9050600082013567ffffffffffffffff81111562000f0c5762000f0b62000d50565b5b62000f1a8482850162000def565b600083015250602082013567ffffffffffffffff81111562000f415762000f4062000d50565b5b62000f4f8482850162000def565b602083015250604082013567ffffffffffffffff81111562000f765762000f7562000d50565b5b62000f848482850162000def565b604083015250606062000f9a8482850162000e46565b606083015250608062000fb08482850162000e46565b60808301525060a062000fc68482850162000eab565b60a08301525060c062000fdc8482850162000e46565b60c08301525060e082013567ffffffffffffffff81111562001003576200100262000d50565b5b620010118482850162000def565b60e08301525061010082013567ffffffffffffffff81111562001039576200103862000d50565b5b620010478482850162000def565b6101008301525061012082013567ffffffffffffffff81111562001070576200106f62000d50565b5b6200107e8482850162000def565b6101208301525061014082013567ffffffffffffffff811115620010a757620010a662000d50565b5b620010b58482850162000def565b6101408301525061016082013567ffffffffffffffff811115620010de57620010dd62000d50565b5b620010ec8482850162000def565b6101608301525092915050565b60006020828403121562001112576200111162000cac565b5b600082013567ffffffffffffffff81111562001133576200113262000cb1565b5b620011418482850162000ec2565b91505092915050565b620011558162000e7d565b82525050565b60006020820190506200117260008301846200114a565b92915050565b60008060006060848603121562001194576200119362000cac565b5b6000620011a48682870162000eab565b9350506020620011b78682870162000eab565b9250506040620011ca8682870162000e46565b9150509250925092565b60008115159050919050565b620011eb81620011d4565b82525050565b6000602082019050620012086000830184620011e0565b92915050565b620012198162000e22565b82525050565b60006020820190506200123660008301846200120e565b92915050565b60006020828403121562001255576200125462000cac565b5b6000620012658482850162000e46565b91505092915050565b60006020828403121562001287576200128662000cac565b5b6000620012978482850162000eab565b91505092915050565b600067ffffffffffffffff821115620012be57620012bd62000ccc565b5b620012c98262000cbb565b9050602081019050919050565b6000620012ed620012e784620012a0565b62000d31565b9050828152602081018484840111156200130c576200130b62000d5a565b5b6200131984828562000d95565b509392505050565b600082601f83011262001339576200133862000d55565b5b81356200134b848260208601620012d6565b91505092915050565b6000602082840312156200136d576200136c62000cac565b5b600082013567ffffffffffffffff8111156200138e576200138d62000cb1565b5b6200139c8482850162001321565b91505092915050565b600080fd5b600080fd5b60008083601f840112620013c857620013c762000d55565b5b8235905067ffffffffffffffff811115620013e857620013e7620013a5565b5b602083019150836001820283011115620014075762001406620013aa565b5b9250929050565b6000806020838503121562001428576200142762000cac565b5b600083013567ffffffffffffffff81111562001449576200144862000cb1565b5b6200145785828601620013af565b92509250509250929050565b600080604083850312156200147d576200147c62000cac565b5b60006200148d8582860162000eab565b9250506020620014a08582860162000eab565b9150509250929050565b600081519050919050565b600082825260208201905092915050565b6000819050602082019050919050565b600081519050919050565b600082825260208201905092915050565b60005b8381101562001512578082015181840152602081019050620014f5565b60008484015250505050565b60006200152b82620014d6565b620015378185620014e1565b935062001549818560208601620014f2565b620015548162000cbb565b840191505092915050565b60006200156d83836200151e565b905092915050565b6000602082019050919050565b60006200158f82620014aa565b6200159b8185620014b5565b935083602082028501620015af85620014c6565b8060005b85811015620015f15784840389528151620015cf85826200155f565b9450620015dc8362001575565b925060208a01995050600181019050620015b3565b50829750879550505050505092915050565b600060208201905081810360008301526200161f818462001582565b905092915050565b600082825260208201905092915050565b60006200164582620014d6565b62001651818562001627565b935062001663818560208601620014f2565b6200166e8162000cbb565b840191505092915050565b6000602082019050818103600083015262001695818462001638565b905092915050565b600081905092915050565b50565b6000620016ba6000836200169d565b9150620016c782620016a8565b600082019050919050565b6000620016df82620016ab565b9150819050919050565b600081519050919050565b60006200170182620016e9565b6200170d81856200169d565b93506200171f818560208601620014f2565b80840191505092915050565b6000620017398284620016f4565b915081905092915050565b600082825260208201905092915050565b7f456e737461723a2050524f4a4543545f52455045415400000000000000000000600082015250565b60006200178d60168362001744565b91506200179a8262001755565b602082019050919050565b60006020820190508181036000830152620017c0816200177e565b9050919050565b600081905092915050565b6000620017df82620014d6565b620017eb8185620017c7565b9350620017fd818560208601620014f2565b80840191505092915050565b6000620018178285620017d2565b9150620018258284620017d2565b91508190509392505050565b60006200183e82620016e9565b6200184a818562001744565b93506200185c818560208601620014f2565b620018678162000cbb565b840191505092915050565b600060208201905081810360008301526200188e818462001831565b905092915050565b6000620018a48284620017d2565b915081905092915050565b7f456e737461723a205a45524f5f41444452455353000000000000000000000000600082015250565b6000620018e760148362001744565b9150620018f482620018af565b602082019050919050565b600060208201905081810360008301526200191a81620018d8565b9050919050565b7f4e487b7100000000000000000000000000000000000000000000000000000000600052602260045260246000fd5b600060028204905060018216806200196957607f821691505b6020821081036200197f576200197e62001921565b5b50919050565b60008190508160005260206000209050919050565b60006020601f8301049050919050565b600082821b905092915050565b600060088302620019e97fffffffffffffffffffffffffffffffffffffffffffffffffffffffffffffffff82620019aa565b620019f58683620019aa565b95508019841693508086168417925050509392505050565b6000819050919050565b600062001a3862001a3262001a2c8462000e22565b62001a0d565b62000e22565b9050919050565b6000819050919050565b62001a548362001a17565b62001a6c62001a638262001a3f565b848454620019b7565b825550505050565b600090565b62001a8362001a74565b62001a9081848462001a49565b505050565b5b8181101562001ab85762001aac60008262001a79565b60018101905062001a96565b5050565b601f82111562001b075762001ad18162001985565b62001adc846200199a565b8101602085101562001aec578190505b62001b0462001afb856200199a565b83018262001a95565b50505b505050565b600082821c905092915050565b600062001b2c6000198460080262001b0c565b1980831691505092915050565b600062001b47838362001b19565b9150826002028217905092915050565b62001b6282620014d6565b67ffffffffffffffff81111562001b7e5762001b7d62000ccc565b5b62001b8a825462001950565b62001b9782828562001abc565b600060209050601f83116001811462001bcf576000841562001bba578287015190505b62001bc6858262001b39565b86555062001c36565b601f19841662001bdf8662001985565b60005b8281101562001c095784890151825560018201915060208501945060208101905062001be2565b8683101562001c29578489015162001c25601f89168262001b19565b8355505b6001600288020188555050505b505050505050565b600082825260208201905092915050565b600062001c5c82620016e9565b62001c68818562001c3e565b935062001c7a818560208601620014f2565b62001c858162000cbb565b840191505092915050565b62001c9b8162000e22565b82525050565b62001cac8162000e7d565b82525050565b600061018083016000830151848203600086015262001cd2828262001c4f565b9150506020830151848203602086015262001cee828262001c4f565b9150506040830151848203604086015262001d0a828262001c4f565b915050606083015162001d21606086018262001c90565b50608083015162001d36608086018262001c90565b5060a083015162001d4b60a086018262001ca1565b5060c083015162001d6060c086018262001c90565b5060e083015184820360e086015262001d7a828262001c4f565b91505061010083015184820361010086015262001d98828262001c4f565b91505061012083015184820361012086015262001db6828262001c4f565b91505061014083015184820361014086015262001dd4828262001c4f565b91505061016083015184820361016086015262001df2828262001c4f565b9150508091505092915050565b6000602082019050818103600083015262001e1b818462001cb2565b905092915050565b6000608082019050818103600083015262001e3f818762001831565b9050818103602083015262001e55818662001638565b905062001e6660408301856200114a565b62001e7560608301846200120e565b95945050505050565b600060408201905062001e9560008301856200114a565b62001ea460208301846200120e565b9392505050565b62001eb681620011d4565b811462001ec257600080fd5b50565b60008151905062001ed68162001eab565b92915050565b60006020828403121562001ef55762001ef462000cac565b5b600062001f058482850162001ec5565b91505092915050565b7f456e737461723a20464f5242494444454e000000000000000000000000000000600082015250565b600062001f4660118362001744565b915062001f538262001f0e565b602082019050919050565b6000602082019050818103600083015262001f798162001f37565b9050919050565b600062001f8e838562001744565b935062001f9d83858462000d95565b62001fa88362000cbb565b840190509392505050565b6000602082019050818103600083015262001fd081848662001f80565b9050939250505056fe60806040523480156200001157600080fd5b5060405162002183380380620021838339818101604052810190620000379190620000e9565b80600e60006101000a81548173ffffffffffffffffffffffffffffffffffffffff021916908373ffffffffffffffffffffffffffffffffffffffff160217905550506200011b565b600080fd5b600073ffffffffffffffffffffffffffffffffffffffff82169050919050565b6000620000b18262000084565b9050919050565b620000c381620000a4565b8114620000cf57600080fd5b50565b600081519050620000e381620000b8565b92915050565b6000602082840312156200010257620001016200007f565b5b60006200011284828501620000d2565b91505092915050565b612058806200012b6000396000f3fe60806040526004361061009c5760003560e01c80639961cea7116100645780639961cea7146101d5578063bb921484146101fe578063bbc0f22b14610229578063c416d07514610266578063d518097814610296578063f60ca60d146102d35761009c565b80630e070446146100a15780633c7e9485146100de578063610fda861461011b5780636f7bc9be1461015857806393fac45714610198575b600080fd5b3480156100ad57600080fd5b506100c860048036038101906100c39190611234565b610309565b6040516100d5919061128f565b60405180910390f35b3480156100ea57600080fd5b50610105600480360381019061010091906112aa565b610364565b604051610112919061128f565b60405180910390f35b34801561012757600080fd5b50610142600480360381019061013d91906112aa565b61041d565b60405161014f919061128f565b60405180910390f35b34801561016457600080fd5b5061017f600480360381019061017a91906112aa565b61054e565b60405161018f94939291906112f5565b60405180910390f35b3480156101a457600080fd5b506101bf60048036038101906101ba919061133a565b61059e565b6040516101cc9190611367565b60405180910390f35b3480156101e157600080fd5b506101fc60048036038101906101f791906116d4565b6105dd565b005b34801561020a57600080fd5b506102136106fe565b604051610220919061171d565b60405180910390f35b34801561023557600080fd5b50610250600480360381019061024b9190611738565b61070a565b60405161025d919061128f565b60405180910390f35b610280600480360381019061027b919061179f565b6107d4565b60405161028d919061128f565b60405180910390f35b3480156102a257600080fd5b506102bd60048036038101906102b891906117f2565b610abe565b6040516102ca919061171d565b60405180910390f35b3480156102df57600080fd5b506102e8610b47565b6040516103009c9b9a999897969594939291906118b1565b60405180910390f35b60006001151561031832610364565b15151461035a576040517f08c379a0000000000000000000000000000000000000000000000000000000008152600401610351906119ef565b60405180910390fd5b6001905092915050565b600080600d8054905011156104135760005b600d80549050811015610411578273ffffffffffffffffffffffffffffffffffffffff16600d82815481106103ae576103ad611a0f565b5b9060005260206000200160009054906101000a900473ffffffffffffffffffffffffffffffffffffffff1673ffffffffffffffffffffffffffffffffffffffff16036103fe576001915050610418565b808061040990611a6d565b915050610376565b505b600090505b919050565b6000600e60009054906101000a900473ffffffffffffffffffffffffffffffffffffffff1673ffffffffffffffffffffffffffffffffffffffff163273ffffffffffffffffffffffffffffffffffffffff16146104af576040517f08c379a00000000000000000000000000000000000000000000000000000000081526004016104a6906119ef565b60405180910390fd5b8173ffffffffffffffffffffffffffffffffffffffff1663a9059cbb323073ffffffffffffffffffffffffffffffffffffffff16316040518363ffffffff1660e01b8152600401610501929190611ab5565b6020604051808303816000875af1158015610520573d6000803e3d6000fd5b505050506040513d601f19601f820116820180604052508101906105449190611b0a565b5060019050919050565b600c6020528060005260406000206000915090508060000160009054906101000a900473ffffffffffffffffffffffffffffffffffffffff16908060010154908060020154908060030154905084565b600d81815481106105ae57600080fd5b906000526020600020016000915054906101000a900473ffffffffffffffffffffffffffffffffffffffff1681565b806000808201518160000190816105f49190611d43565b50602082015181600101908161060a9190611d43565b5060408201518160020190816106209190611d43565b50606082015181600301556080820151816004015560a08201518160050160006101000a81548173ffffffffffffffffffffffffffffffffffffffff021916908373ffffffffffffffffffffffffffffffffffffffff16021790555060c0820151816006015560e082015181600701908161069b9190611d43565b506101008201518160080190816106b29190611d43565b506101208201518160090190816106c99190611d43565b5061014082015181600a0190816106e09190611d43565b5061016082015181600b0190816106f79190611d43565b5090505050565b60008060060154905090565b60008473ffffffffffffffffffffffffffffffffffffffff166323b872dd8585856040518463ffffffff1660e01b815260040161074993929190611e15565b6020604051808303816000875af1158015610768573d6000803e3d6000fd5b505050506040513d601f19601f8201168201806040525081019061078c9190611b0a565b507f54c25aa230f7ee0c1e146d3416a3a4972d9fa34640b86e84383b461a585593de8584846040516107c093929190611e98565b60405180910390a160019050949350505050565b60008061080485600e60009054906101000a900473ffffffffffffffffffffffffffffffffffffffff1686610ff5565b90508015610ab357600061081786610364565b90508061096457600d869080600181540180825580915050600190039060005260206000200160009091909190916101000a81548173ffffffffffffffffffffffffffffffffffffffff021916908373ffffffffffffffffffffffffffffffffffffffff16021790555060405180608001604052808773ffffffffffffffffffffffffffffffffffffffff16815260200186815260200185815260200185815250600c60008873ffffffffffffffffffffffffffffffffffffffff1673ffffffffffffffffffffffffffffffffffffffff16815260200190815260200160002060008201518160000160006101000a81548173ffffffffffffffffffffffffffffffffffffffff021916908373ffffffffffffffffffffffffffffffffffffffff160217905550602082015181600101556040820151816002015560608201518160030155905050610a95565b6000600c60008873ffffffffffffffffffffffffffffffffffffffff1673ffffffffffffffffffffffffffffffffffffffff1681526020019081526020016000209050858160010160008282546109bb9190611ee2565b9250508190555084816003018190555080600c60008973ffffffffffffffffffffffffffffffffffffffff1673ffffffffffffffffffffffffffffffffffffffff1681526020019081526020016000206000820160009054906101000a900473ffffffffffffffffffffffffffffffffffffffff168160000160006101000a81548173ffffffffffffffffffffffffffffffffffffffff021916908373ffffffffffffffffffffffffffffffffffffffff160217905550600182015481600101556002820154816002015560038201548160030155905050505b8460006006016000828254610aaa9190611ee2565b92505081905550505b809150509392505050565b6000808373ffffffffffffffffffffffffffffffffffffffff166370a08231846040518263ffffffff1660e01b8152600401610afa9190611367565b602060405180830381865afa158015610b17573d6000803e3d6000fd5b505050506040513d601f19601f82011682018060405250810190610b3b9190611f2b565b90508091505092915050565b6000806000018054610b5890611b66565b80601f0160208091040260200160405190810160405280929190818152602001828054610b8490611b66565b8015610bd15780601f10610ba657610100808354040283529160200191610bd1565b820191906000526020600020905b815481529060010190602001808311610bb457829003601f168201915b505050505090806001018054610be690611b66565b80601f0160208091040260200160405190810160405280929190818152602001828054610c1290611b66565b8015610c5f5780601f10610c3457610100808354040283529160200191610c5f565b820191906000526020600020905b815481529060010190602001808311610c4257829003601f168201915b505050505090806002018054610c7490611b66565b80601f0160208091040260200160405190810160405280929190818152602001828054610ca090611b66565b8015610ced5780601f10610cc257610100808354040283529160200191610ced565b820191906000526020600020905b815481529060010190602001808311610cd057829003601f168201915b5050505050908060030154908060040154908060050160009054906101000a900473ffffffffffffffffffffffffffffffffffffffff1690806006015490806007018054610d3a90611b66565b80601f0160208091040260200160405190810160405280929190818152602001828054610d6690611b66565b8015610db35780601f10610d8857610100808354040283529160200191610db3565b820191906000526020600020905b815481529060010190602001808311610d9657829003601f168201915b505050505090806008018054610dc890611b66565b80601f0160208091040260200160405190810160405280929190818152602001828054610df490611b66565b8015610e415780601f10610e1657610100808354040283529160200191610e41565b820191906000526020600020905b815481529060010190602001808311610e2457829003601f168201915b505050505090806009018054610e5690611b66565b80601f0160208091040260200160405190810160405280929190818152602001828054610e8290611b66565b8015610ecf5780601f10610ea457610100808354040283529160200191610ecf565b820191906000526020600020905b815481529060010190602001808311610eb257829003601f168201915b50505050509080600a018054610ee490611b66565b80601f0160208091040260200160405190810160405280929190818152602001828054610f1090611b66565b8015610f5d5780601f10610f3257610100808354040283529160200191610f5d565b820191906000526020600020905b815481529060010190602001808311610f4057829003601f168201915b50505050509080600b018054610f7290611b66565b80601f0160208091040260200160405190810160405280929190818152602001828054610f9e90611b66565b8015610feb5780601f10610fc057610100808354040283529160200191610feb565b820191906000526020600020905b815481529060010190602001808311610fce57829003601f168201915b505050505090508c565b60008060008573ffffffffffffffffffffffffffffffffffffffff1663a9059cbb60e01b868660405160240161102c929190611ab5565b604051602081830303815290604052907bffffffffffffffffffffffffffffffffffffffffffffffffffffffff19166020820180517bffffffffffffffffffffffffffffffffffffffffffffffffffffffff83818316178352505050506040516110969190611f9f565b6000604051808303816000865af19150503d80600081146110d3576040519150601f19603f3d011682016040523d82523d6000602084013e6110d8565b606091505b509150915081801561110657506000815114806111055750808060200190518101906111049190611b0a565b5b5b611145576040517f08c379a000000000000000000000000000000000000000000000000000000000815260040161113c90612002565b60405180910390fd5b7f54c25aa230f7ee0c1e146d3416a3a4972d9fa34640b86e84383b461a585593de86868660405161117893929190611e98565b60405180910390a181925050509392505050565b6000604051905090565b600080fd5b600080fd5b600073ffffffffffffffffffffffffffffffffffffffff82169050919050565b60006111cb826111a0565b9050919050565b6111db816111c0565b81146111e657600080fd5b50565b6000813590506111f8816111d2565b92915050565b6000819050919050565b611211816111fe565b811461121c57600080fd5b50565b60008135905061122e81611208565b92915050565b6000806040838503121561124b5761124a611196565b5b6000611259858286016111e9565b925050602061126a8582860161121f565b9150509250929050565b60008115159050919050565b61128981611274565b82525050565b60006020820190506112a46000830184611280565b92915050565b6000602082840312156112c0576112bf611196565b5b60006112ce848285016111e9565b91505092915050565b6112e0816111c0565b82525050565b6112ef816111fe565b82525050565b600060808201905061130a60008301876112d7565b61131760208301866112e6565b61132460408301856112e6565b61133160608301846112e6565b95945050505050565b6000602082840312156113505761134f611196565b5b600061135e8482850161121f565b91505092915050565b600060208201905061137c60008301846112d7565b92915050565b600080fd5b6000601f19601f8301169050919050565b7f4e487b7100000000000000000000000000000000000000000000000000000000600052604160045260246000fd5b6113d082611387565b810181811067ffffffffffffffff821117156113ef576113ee611398565b5b80604052505050565b600061140261118c565b905061140e82826113c7565b919050565b600080fd5b600080fd5b600080fd5b600067ffffffffffffffff82111561143d5761143c611398565b5b61144682611387565b9050602081019050919050565b82818337600083830152505050565b600061147561147084611422565b6113f8565b9050828152602081018484840111156114915761149061141d565b5b61149c848285611453565b509392505050565b600082601f8301126114b9576114b8611418565b5b81356114c9848260208601611462565b91505092915050565b600061018082840312156114e9576114e8611382565b5b6114f46101806113f8565b9050600082013567ffffffffffffffff81111561151457611513611413565b5b611520848285016114a4565b600083015250602082013567ffffffffffffffff81111561154457611543611413565b5b611550848285016114a4565b602083015250604082013567ffffffffffffffff81111561157457611573611413565b5b611580848285016114a4565b60408301525060606115948482850161121f565b60608301525060806115a88482850161121f565b60808301525060a06115bc848285016111e9565b60a08301525060c06115d08482850161121f565b60c08301525060e082013567ffffffffffffffff8111156115f4576115f3611413565b5b611600848285016114a4565b60e08301525061010082013567ffffffffffffffff81111561162557611624611413565b5b611631848285016114a4565b6101008301525061012082013567ffffffffffffffff81111561165757611656611413565b5b611663848285016114a4565b6101208301525061014082013567ffffffffffffffff81111561168957611688611413565b5b611695848285016114a4565b6101408301525061016082013567ffffffffffffffff8111156116bb576116ba611413565b5b6116c7848285016114a4565b6101608301525092915050565b6000602082840312156116ea576116e9611196565b5b600082013567ffffffffffffffff8111156117085761170761119b565b5b611714848285016114d2565b91505092915050565b600060208201905061173260008301846112e6565b92915050565b6000806000806080858703121561175257611751611196565b5b6000611760878288016111e9565b9450506020611771878288016111e9565b9350506040611782878288016111e9565b92505060606117938782880161121f565b91505092959194509250565b6000806000606084860312156117b8576117b7611196565b5b60006117c6868287016111e9565b93505060206117d78682870161121f565b92505060406117e88682870161121f565b9150509250925092565b6000806040838503121561180957611808611196565b5b6000611817858286016111e9565b9250506020611828858286016111e9565b9150509250929050565b600081519050919050565b600082825260208201905092915050565b60005b8381101561186c578082015181840152602081019050611851565b60008484015250505050565b600061188382611832565b61188d818561183d565b935061189d81856020860161184e565b6118a681611387565b840191505092915050565b60006101808201905081810360008301526118cc818f611878565b905081810360208301526118e0818e611878565b905081810360408301526118f4818d611878565b9050611903606083018c6112e6565b611910608083018b6112e6565b61191d60a083018a6112d7565b61192a60c08301896112e6565b81810360e083015261193c8188611878565b90508181036101008301526119518187611878565b90508181036101208301526119668186611878565b905081810361014083015261197b8185611878565b90508181036101608301526119908184611878565b90509d9c50505050505050505050505050565b7f456e737461723a20464f5242494444454e000000000000000000000000000000600082015250565b60006119d960118361183d565b91506119e4826119a3565b602082019050919050565b60006020820190508181036000830152611a08816119cc565b9050919050565b7f4e487b7100000000000000000000000000000000000000000000000000000000600052603260045260246000fd5b7f4e487b7100000000000000000000000000000000000000000000000000000000600052601160045260246000fd5b6000611a78826111fe565b91507fffffffffffffffffffffffffffffffffffffffffffffffffffffffffffffffff8203611aaa57611aa9611a3e565b5b600182019050919050565b6000604082019050611aca60008301856112d7565b611ad760208301846112e6565b9392505050565b611ae781611274565b8114611af257600080fd5b50565b600081519050611b0481611ade565b92915050565b600060208284031215611b2057611b1f611196565b5b6000611b2e84828501611af5565b91505092915050565b7f4e487b7100000000000000000000000000000000000000000000000000000000600052602260045260246000fd5b60006002820490506001821680611b7e57607f821691505b602082108103611b9157611b90611b37565b5b50919050565b60008190508160005260206000209050919050565b60006020601f8301049050919050565b600082821b905092915050565b600060088302611bf97fffffffffffffffffffffffffffffffffffffffffffffffffffffffffffffffff82611bbc565b611c038683611bbc565b95508019841693508086168417925050509392505050565b6000819050919050565b6000611c40611c3b611c36846111fe565b611c1b565b6111fe565b9050919050565b6000819050919050565b611c5a83611c25565b611c6e611c6682611c47565b848454611bc9565b825550505050565b600090565b611c83611c76565b611c8e818484611c51565b505050565b5b81811015611cb257611ca7600082611c7b565b600181019050611c94565b5050565b601f821115611cf757611cc881611b97565b611cd184611bac565b81016020851015611ce0578190505b611cf4611cec85611bac565b830182611c93565b50505b505050565b600082821c905092915050565b6000611d1a60001984600802611cfc565b1980831691505092915050565b6000611d338383611d09565b9150826002028217905092915050565b611d4c82611832565b67ffffffffffffffff811115611d6557611d64611398565b5b611d6f8254611b66565b611d7a828285611cb6565b600060209050601f831160018114611dad5760008415611d9b578287015190505b611da58582611d27565b865550611e0d565b601f198416611dbb86611b97565b60005b82811015611de357848901518255600182019150602085019450602081019050611dbe565b86831015611e005784890151611dfc601f891682611d09565b8355505b6001600288020188555050505b505050505050565b6000606082019050611e2a60008301866112d7565b611e3760208301856112d7565b611e4460408301846112e6565b949350505050565b7f5f7472616e736665720000000000000000000000000000000000000000000000600082015250565b6000611e8260098361183d565b9150611e8d82611e4c565b602082019050919050565b60006080820190508181036000830152611eb181611e75565b9050611ec060208301866112d7565b611ecd60408301856112d7565b611eda60608301846112e6565b949350505050565b6000611eed826111fe565b9150611ef8836111fe565b9250828201905080821115611f1057611f0f611a3e565b5b92915050565b600081519050611f2581611208565b92915050565b600060208284031215611f4157611f40611196565b5b6000611f4f84828501611f16565b91505092915050565b600081519050919050565b600081905092915050565b6000611f7982611f58565b611f838185611f63565b9350611f9381856020860161184e565b80840191505092915050565b6000611fab8284611f6e565b915081905092915050565b7f5354000000000000000000000000000000000000000000000000000000000000600082015250565b6000611fec60028361183d565b9150611ff782611fb6565b602082019050919050565b6000602082019050818103600083015261201b81611fdf565b905091905056fea264697066735822122069c2201537f0dc8f627765c4afcdc6d7957b6f01ad14f3cfe056e7083c632ef964736f6c63430008110033a264697066735822122091c8238622f9e7b0d608126f56475eaf85ed9c60b61e324d6eae78c2760fda4b64736f6c63430008110033",
  "immutableReferences": {},
  "source": "/*\r\n * @Descripttion: enstar\r\n * @version: 1.0\r\n * @Author: lxm\r\n * @Date: 2023-01-08 22:00:00\r\n * @LastEditors: lxm\r\n * @LastEditTime: 2023-01-08 22:00:00\r\n */\r\n\r\n// SPDX-License-Identifier: GPL-2.0-or-later\r\npragma solidity ^0.8.0;\r\n\r\nimport './interfaces/IEnstarV1Project.sol';\r\nimport './EnstarV1Project.sol';\r\n\r\ncontract EnstarV1Factory {\r\n\r\n\r\n    \r\n    //,,\r\n    address public admin;\r\n\r\n    //\r\n    address[] public allProjects;\r\n\r\n    //\r\n    bytes[] public project_name;\r\n\r\n    //\r\n    mapping(bytes => address) public getProject;\r\n\r\n    event ProjectCreated(string name, bytes name_code, address project, uint);\r\n\r\n    constructor(address _admin) {\r\n        require(_admin != address(0), 'Enstar: ZERO_ADDRESS');\r\n        admin = _admin;\r\n    }\r\n\r\n    //\r\n    function allProjectsLength() external view returns (uint) {\r\n        return allProjects.length;\r\n    }\r\n\r\n    //\r\n    function isProjectExist(string calldata _name) external view returns (bool) {\r\n        bytes memory name_code = abi.encode(_name);\r\n        return getProject[name_code] != address(0) ? true : false;\r\n    }\r\n\r\n    //\r\n    function getAddressByName(string calldata _name) external view returns (address) {\r\n        bytes memory name_code = abi.encode(_name);\r\n        address add = getProject[name_code];\r\n        return add;\r\n    }\r\n\r\n    //\r\n    function getAllProject() external view returns (bytes [] memory) {\r\n        // string [] memory names;\r\n        // for(uint i = 0 ; i < project_name.length ; i++){\r\n        //     names[i] = abi.decode(project_name[i],(string));\r\n        // }\r\n        return project_name;\r\n    }\r\n\r\n    //\r\n    function createProject(IEnstarV1Project.Project memory _project) external returns (address project_address) {\r\n        //\r\n        require(keccak256(abi.encodePacked(_project.name)) != keccak256(abi.encodePacked(\"\")) , 'Enstar: PROJECT_REPEAT');\r\n        bytes memory code = type(EnstarV1Project).creationCode;\r\n        bytes memory bytecode = abi.encodePacked(code, abi.encode(msg.sender));\r\n        bytes memory name_code = abi.encode(_project.name);\r\n        bytes32 salt = keccak256(name_code);\r\n        //\r\n        require(getProject[name_code] == address(0), 'Enstar: PROJECT_REPEAT');\r\n        assembly {\r\n            project_address := create2(0, add(bytecode, 32), mload(bytecode), salt)\r\n        }\r\n        require(project_address != address(0), 'Enstar: ZERO_ADDRESS');\r\n        getProject[name_code] = project_address;\r\n        allProjects.push(project_address);\r\n        project_name.push(name_code);\r\n        IEnstarV1Project(project_address).setProject(_project);\r\n        emit ProjectCreated(_project.name, name_code, project_address, allProjects.length);\r\n    }\r\n\r\n\r\n    //,\r\n    function setAdmin(address _admin) external {\r\n        require(admin == msg.sender, 'Enstar: FORBIDDEN');\r\n        admin = _admin;\r\n    }\r\n\r\n    //\r\n    function investorWithdraw(address _erc20Addr,address _project,uint256 _amount) external returns (bool){\r\n        return IEnstarV1Project(_project).investorWithdraw(_erc20Addr, _amount);\r\n        //TODO\r\n    }\r\n\r\n    //\r\n    function projectWithdraw(address _erc20Addr,address _project) external returns (bool){\r\n        return IEnstarV1Project(_project).projectWithdraw(_erc20Addr);\r\n    }\r\n\r\n\r\n}",
  "sourcePath": "D:\\solidityWorkSpace\\enstart\\enstar-v1-core\\contracts\\EnstarV1Factory.sol",
  "compiler": {
    "name": "solc",
    "version": "0.8.17+commit.8df45f5f.Emscripten.clang"
  },
  "schemaVersion": "3.4.11",
  "updatedAt": "2023-01-12T20:34:53.647Z",
  "networkType": "ethereum",
  "devdoc": {
    "kind": "dev",
    "methods": {},
    "version": 1
  },
  "userdoc": {
    "kind": "user",
    "methods": {},
    "version": 1
  }
}