{
  "contractName": "EnstarV1Project",
  "abi": [
    {
      "inputs": [
        {
          "internalType": "address",
          "name": "_contract",
          "type": "address"
        }
      ],
      "stateMutability": "nonpayable",
      "type": "constructor"
    },
    {
      "anonymous": false,
      "inputs": [
        {
          "indexed": false,
          "internalType": "string",
          "name": "message",
          "type": "string"
        },
        {
          "indexed": false,
          "internalType": "address",
          "name": "from",
          "type": "address"
        },
        {
          "indexed": false,
          "internalType": "address",
          "name": "to",
          "type": "address"
        },
        {
          "indexed": false,
          "internalType": "uint256",
          "name": "amount",
          "type": "uint256"
        }
      ],
      "name": "Transfer",
      "type": "event"
    },
    {
      "inputs": [
        {
          "internalType": "uint256",
          "name": "",
          "type": "uint256"
        }
      ],
      "name": "investor_list",
      "outputs": [
        {
          "internalType": "address",
          "name": "",
          "type": "address"
        }
      ],
      "stateMutability": "view",
      "type": "function",
      "constant": true
    },
    {
      "inputs": [
        {
          "internalType": "address",
          "name": "",
          "type": "address"
        }
      ],
      "name": "investors",
      "outputs": [
        {
          "internalType": "address",
          "name": "investor",
          "type": "address"
        },
        {
          "internalType": "uint256",
          "name": "amount",
          "type": "uint256"
        },
        {
          "internalType": "uint256",
          "name": "create_time",
          "type": "uint256"
        },
        {
          "internalType": "uint256",
          "name": "update_time",
          "type": "uint256"
        }
      ],
      "stateMutability": "view",
      "type": "function",
      "constant": true
    },
    {
      "inputs": [],
      "name": "project",
      "outputs": [
        {
          "internalType": "string",
          "name": "name",
          "type": "string"
        },
        {
          "internalType": "string",
          "name": "introduction",
          "type": "string"
        },
        {
          "internalType": "string",
          "name": "operate",
          "type": "string"
        },
        {
          "internalType": "uint256",
          "name": "amount",
          "type": "uint256"
        },
        {
          "internalType": "uint256",
          "name": "create_time",
          "type": "uint256"
        },
        {
          "internalType": "address",
          "name": "account",
          "type": "address"
        },
        {
          "internalType": "uint256",
          "name": "balance",
          "type": "uint256"
        },
        {
          "internalType": "string",
          "name": "website",
          "type": "string"
        },
        {
          "internalType": "string",
          "name": "creator",
          "type": "string"
        },
        {
          "internalType": "string",
          "name": "country",
          "type": "string"
        },
        {
          "internalType": "string",
          "name": "province",
          "type": "string"
        },
        {
          "internalType": "string",
          "name": "city",
          "type": "string"
        }
      ],
      "stateMutability": "view",
      "type": "function",
      "constant": true
    },
    {
      "inputs": [
        {
          "components": [
            {
              "internalType": "string",
              "name": "name",
              "type": "string"
            },
            {
              "internalType": "string",
              "name": "introduction",
              "type": "string"
            },
            {
              "internalType": "string",
              "name": "operate",
              "type": "string"
            },
            {
              "internalType": "uint256",
              "name": "amount",
              "type": "uint256"
            },
            {
              "internalType": "uint256",
              "name": "create_time",
              "type": "uint256"
            },
            {
              "internalType": "address",
              "name": "account",
              "type": "address"
            },
            {
              "internalType": "uint256",
              "name": "balance",
              "type": "uint256"
            },
            {
              "internalType": "string",
              "name": "website",
              "type": "string"
            },
            {
              "internalType": "string",
              "name": "creator",
              "type": "string"
            },
            {
              "internalType": "string",
              "name": "country",
              "type": "string"
            },
            {
              "internalType": "string",
              "name": "province",
              "type": "string"
            },
            {
              "internalType": "string",
              "name": "city",
              "type": "string"
            }
          ],
          "internalType": "struct IEnstarV1Project.Project",
          "name": "_project",
          "type": "tuple"
        }
      ],
      "name": "setProject",
      "outputs": [],
      "stateMutability": "nonpayable",
      "type": "function"
    },
    {
      "inputs": [],
      "name": "checkProjectBalance",
      "outputs": [
        {
          "internalType": "uint256",
          "name": "",
          "type": "uint256"
        }
      ],
      "stateMutability": "view",
      "type": "function",
      "constant": true
    },
    {
      "inputs": [
        {
          "internalType": "address",
          "name": "_contract",
          "type": "address"
        },
        {
          "internalType": "address",
          "name": "sender",
          "type": "address"
        },
        {
          "internalType": "address",
          "name": "to",
          "type": "address"
        },
        {
          "internalType": "uint256",
          "name": "amount",
          "type": "uint256"
        }
      ],
      "name": "transferTest",
      "outputs": [
        {
          "internalType": "bool",
          "name": "",
          "type": "bool"
        }
      ],
      "stateMutability": "nonpayable",
      "type": "function"
    },
    {
      "inputs": [
        {
          "internalType": "address",
          "name": "_contract",
          "type": "address"
        },
        {
          "internalType": "address",
          "name": "_token",
          "type": "address"
        }
      ],
      "name": "balanceOfTest",
      "outputs": [
        {
          "internalType": "uint256",
          "name": "",
          "type": "uint256"
        }
      ],
      "stateMutability": "view",
      "type": "function",
      "constant": true
    },
    {
      "inputs": [
        {
          "internalType": "address",
          "name": "_investor",
          "type": "address"
        }
      ],
      "name": "authorizeInvestor",
      "outputs": [
        {
          "internalType": "bool",
          "name": "",
          "type": "bool"
        }
      ],
      "stateMutability": "view",
      "type": "function",
      "constant": true
    },
    {
      "inputs": [
        {
          "internalType": "address",
          "name": "_investor",
          "type": "address"
        },
        {
          "internalType": "uint256",
          "name": "amount",
          "type": "uint256"
        },
        {
          "internalType": "uint256",
          "name": "timestamp",
          "type": "uint256"
        }
      ],
      "name": "invest",
      "outputs": [
        {
          "internalType": "bool",
          "name": "",
          "type": "bool"
        }
      ],
      "stateMutability": "payable",
      "type": "function",
      "payable": true
    },
    {
      "inputs": [
        {
          "internalType": "address",
          "name": "_erc20Addr",
          "type": "address"
        },
        {
          "internalType": "uint256",
          "name": "_amount",
          "type": "uint256"
        }
      ],
      "name": "investorWithdraw",
      "outputs": [
        {
          "internalType": "bool",
          "name": "",
          "type": "bool"
        }
      ],
      "stateMutability": "nonpayable",
      "type": "function"
    },
    {
      "inputs": [
        {
          "internalType": "address",
          "name": "_erc20Addr",
          "type": "address"
        }
      ],
      "name": "projectWithdraw",
      "outputs": [
        {
          "internalType": "bool",
          "name": "",
          "type": "bool"
        }
      ],
      "stateMutability": "nonpayable",
      "type": "function"
    }
  ],
  "bytecode": "0x60806040523480156200001157600080fd5b5060405162002183380380620021838339818101604052810190620000379190620000e9565b80600e60006101000a81548173ffffffffffffffffffffffffffffffffffffffff021916908373ffffffffffffffffffffffffffffffffffffffff160217905550506200011b565b600080fd5b600073ffffffffffffffffffffffffffffffffffffffff82169050919050565b6000620000b18262000084565b9050919050565b620000c381620000a4565b8114620000cf57600080fd5b50565b600081519050620000e381620000b8565b92915050565b6000602082840312156200010257620001016200007f565b5b60006200011284828501620000d2565b91505092915050565b612058806200012b6000396000f3fe60806040526004361061009c5760003560e01c80639961cea7116100645780639961cea7146101d5578063bb921484146101fe578063bbc0f22b14610229578063c416d07514610266578063d518097814610296578063f60ca60d146102d35761009c565b80630e070446146100a15780633c7e9485146100de578063610fda861461011b5780636f7bc9be1461015857806393fac45714610198575b600080fd5b3480156100ad57600080fd5b506100c860048036038101906100c39190611234565b610309565b6040516100d5919061128f565b60405180910390f35b3480156100ea57600080fd5b50610105600480360381019061010091906112aa565b610364565b604051610112919061128f565b60405180910390f35b34801561012757600080fd5b50610142600480360381019061013d91906112aa565b61041d565b60405161014f919061128f565b60405180910390f35b34801561016457600080fd5b5061017f600480360381019061017a91906112aa565b61054e565b60405161018f94939291906112f5565b60405180910390f35b3480156101a457600080fd5b506101bf60048036038101906101ba919061133a565b61059e565b6040516101cc9190611367565b60405180910390f35b3480156101e157600080fd5b506101fc60048036038101906101f791906116d4565b6105dd565b005b34801561020a57600080fd5b506102136106fe565b604051610220919061171d565b60405180910390f35b34801561023557600080fd5b50610250600480360381019061024b9190611738565b61070a565b60405161025d919061128f565b60405180910390f35b610280600480360381019061027b919061179f565b6107d4565b60405161028d919061128f565b60405180910390f35b3480156102a257600080fd5b506102bd60048036038101906102b891906117f2565b610abe565b6040516102ca919061171d565b60405180910390f35b3480156102df57600080fd5b506102e8610b47565b6040516103009c9b9a999897969594939291906118b1565b60405180910390f35b60006001151561031832610364565b15151461035a576040517f08c379a0000000000000000000000000000000000000000000000000000000008152600401610351906119ef565b60405180910390fd5b6001905092915050565b600080600d8054905011156104135760005b600d80549050811015610411578273ffffffffffffffffffffffffffffffffffffffff16600d82815481106103ae576103ad611a0f565b5b9060005260206000200160009054906101000a900473ffffffffffffffffffffffffffffffffffffffff1673ffffffffffffffffffffffffffffffffffffffff16036103fe576001915050610418565b808061040990611a6d565b915050610376565b505b600090505b919050565b6000600e60009054906101000a900473ffffffffffffffffffffffffffffffffffffffff1673ffffffffffffffffffffffffffffffffffffffff163273ffffffffffffffffffffffffffffffffffffffff16146104af576040517f08c379a00000000000000000000000000000000000000000000000000000000081526004016104a6906119ef565b60405180910390fd5b8173ffffffffffffffffffffffffffffffffffffffff1663a9059cbb323073ffffffffffffffffffffffffffffffffffffffff16316040518363ffffffff1660e01b8152600401610501929190611ab5565b6020604051808303816000875af1158015610520573d6000803e3d6000fd5b505050506040513d601f19601f820116820180604052508101906105449190611b0a565b5060019050919050565b600c6020528060005260406000206000915090508060000160009054906101000a900473ffffffffffffffffffffffffffffffffffffffff16908060010154908060020154908060030154905084565b600d81815481106105ae57600080fd5b906000526020600020016000915054906101000a900473ffffffffffffffffffffffffffffffffffffffff1681565b806000808201518160000190816105f49190611d43565b50602082015181600101908161060a9190611d43565b5060408201518160020190816106209190611d43565b50606082015181600301556080820151816004015560a08201518160050160006101000a81548173ffffffffffffffffffffffffffffffffffffffff021916908373ffffffffffffffffffffffffffffffffffffffff16021790555060c0820151816006015560e082015181600701908161069b9190611d43565b506101008201518160080190816106b29190611d43565b506101208201518160090190816106c99190611d43565b5061014082015181600a0190816106e09190611d43565b5061016082015181600b0190816106f79190611d43565b5090505050565b60008060060154905090565b60008473ffffffffffffffffffffffffffffffffffffffff166323b872dd8585856040518463ffffffff1660e01b815260040161074993929190611e15565b6020604051808303816000875af1158015610768573d6000803e3d6000fd5b505050506040513d601f19601f8201168201806040525081019061078c9190611b0a565b507f54c25aa230f7ee0c1e146d3416a3a4972d9fa34640b86e84383b461a585593de8584846040516107c093929190611e98565b60405180910390a160019050949350505050565b60008061080485600e60009054906101000a900473ffffffffffffffffffffffffffffffffffffffff1686610ff5565b90508015610ab357600061081786610364565b90508061096457600d869080600181540180825580915050600190039060005260206000200160009091909190916101000a81548173ffffffffffffffffffffffffffffffffffffffff021916908373ffffffffffffffffffffffffffffffffffffffff16021790555060405180608001604052808773ffffffffffffffffffffffffffffffffffffffff16815260200186815260200185815260200185815250600c60008873ffffffffffffffffffffffffffffffffffffffff1673ffffffffffffffffffffffffffffffffffffffff16815260200190815260200160002060008201518160000160006101000a81548173ffffffffffffffffffffffffffffffffffffffff021916908373ffffffffffffffffffffffffffffffffffffffff160217905550602082015181600101556040820151816002015560608201518160030155905050610a95565b6000600c60008873ffffffffffffffffffffffffffffffffffffffff1673ffffffffffffffffffffffffffffffffffffffff1681526020019081526020016000209050858160010160008282546109bb9190611ee2565b9250508190555084816003018190555080600c60008973ffffffffffffffffffffffffffffffffffffffff1673ffffffffffffffffffffffffffffffffffffffff1681526020019081526020016000206000820160009054906101000a900473ffffffffffffffffffffffffffffffffffffffff168160000160006101000a81548173ffffffffffffffffffffffffffffffffffffffff021916908373ffffffffffffffffffffffffffffffffffffffff160217905550600182015481600101556002820154816002015560038201548160030155905050505b8460006006016000828254610aaa9190611ee2565b92505081905550505b809150509392505050565b6000808373ffffffffffffffffffffffffffffffffffffffff166370a08231846040518263ffffffff1660e01b8152600401610afa9190611367565b602060405180830381865afa158015610b17573d6000803e3d6000fd5b505050506040513d601f19601f82011682018060405250810190610b3b9190611f2b565b90508091505092915050565b6000806000018054610b5890611b66565b80601f0160208091040260200160405190810160405280929190818152602001828054610b8490611b66565b8015610bd15780601f10610ba657610100808354040283529160200191610bd1565b820191906000526020600020905b815481529060010190602001808311610bb457829003601f168201915b505050505090806001018054610be690611b66565b80601f0160208091040260200160405190810160405280929190818152602001828054610c1290611b66565b8015610c5f5780601f10610c3457610100808354040283529160200191610c5f565b820191906000526020600020905b815481529060010190602001808311610c4257829003601f168201915b505050505090806002018054610c7490611b66565b80601f0160208091040260200160405190810160405280929190818152602001828054610ca090611b66565b8015610ced5780601f10610cc257610100808354040283529160200191610ced565b820191906000526020600020905b815481529060010190602001808311610cd057829003601f168201915b5050505050908060030154908060040154908060050160009054906101000a900473ffffffffffffffffffffffffffffffffffffffff1690806006015490806007018054610d3a90611b66565b80601f0160208091040260200160405190810160405280929190818152602001828054610d6690611b66565b8015610db35780601f10610d8857610100808354040283529160200191610db3565b820191906000526020600020905b815481529060010190602001808311610d9657829003601f168201915b505050505090806008018054610dc890611b66565b80601f0160208091040260200160405190810160405280929190818152602001828054610df490611b66565b8015610e415780601f10610e1657610100808354040283529160200191610e41565b820191906000526020600020905b815481529060010190602001808311610e2457829003601f168201915b505050505090806009018054610e5690611b66565b80601f0160208091040260200160405190810160405280929190818152602001828054610e8290611b66565b8015610ecf5780601f10610ea457610100808354040283529160200191610ecf565b820191906000526020600020905b815481529060010190602001808311610eb257829003601f168201915b50505050509080600a018054610ee490611b66565b80601f0160208091040260200160405190810160405280929190818152602001828054610f1090611b66565b8015610f5d5780601f10610f3257610100808354040283529160200191610f5d565b820191906000526020600020905b815481529060010190602001808311610f4057829003601f168201915b50505050509080600b018054610f7290611b66565b80601f0160208091040260200160405190810160405280929190818152602001828054610f9e90611b66565b8015610feb5780601f10610fc057610100808354040283529160200191610feb565b820191906000526020600020905b815481529060010190602001808311610fce57829003601f168201915b505050505090508c565b60008060008573ffffffffffffffffffffffffffffffffffffffff1663a9059cbb60e01b868660405160240161102c929190611ab5565b604051602081830303815290604052907bffffffffffffffffffffffffffffffffffffffffffffffffffffffff19166020820180517bffffffffffffffffffffffffffffffffffffffffffffffffffffffff83818316178352505050506040516110969190611f9f565b6000604051808303816000865af19150503d80600081146110d3576040519150601f19603f3d011682016040523d82523d6000602084013e6110d8565b606091505b509150915081801561110657506000815114806111055750808060200190518101906111049190611b0a565b5b5b611145576040517f08c379a000000000000000000000000000000000000000000000000000000000815260040161113c90612002565b60405180910390fd5b7f54c25aa230f7ee0c1e146d3416a3a4972d9fa34640b86e84383b461a585593de86868660405161117893929190611e98565b60405180910390a181925050509392505050565b6000604051905090565b600080fd5b600080fd5b600073ffffffffffffffffffffffffffffffffffffffff82169050919050565b60006111cb826111a0565b9050919050565b6111db816111c0565b81146111e657600080fd5b50565b6000813590506111f8816111d2565b92915050565b6000819050919050565b611211816111fe565b811461121c57600080fd5b50565b60008135905061122e81611208565b92915050565b6000806040838503121561124b5761124a611196565b5b6000611259858286016111e9565b925050602061126a8582860161121f565b9150509250929050565b60008115159050919050565b61128981611274565b82525050565b60006020820190506112a46000830184611280565b92915050565b6000602082840312156112c0576112bf611196565b5b60006112ce848285016111e9565b91505092915050565b6112e0816111c0565b82525050565b6112ef816111fe565b82525050565b600060808201905061130a60008301876112d7565b61131760208301866112e6565b61132460408301856112e6565b61133160608301846112e6565b95945050505050565b6000602082840312156113505761134f611196565b5b600061135e8482850161121f565b91505092915050565b600060208201905061137c60008301846112d7565b92915050565b600080fd5b6000601f19601f8301169050919050565b7f4e487b7100000000000000000000000000000000000000000000000000000000600052604160045260246000fd5b6113d082611387565b810181811067ffffffffffffffff821117156113ef576113ee611398565b5b80604052505050565b600061140261118c565b905061140e82826113c7565b919050565b600080fd5b600080fd5b600080fd5b600067ffffffffffffffff82111561143d5761143c611398565b5b61144682611387565b9050602081019050919050565b82818337600083830152505050565b600061147561147084611422565b6113f8565b9050828152602081018484840111156114915761149061141d565b5b61149c848285611453565b509392505050565b600082601f8301126114b9576114b8611418565b5b81356114c9848260208601611462565b91505092915050565b600061018082840312156114e9576114e8611382565b5b6114f46101806113f8565b9050600082013567ffffffffffffffff81111561151457611513611413565b5b611520848285016114a4565b600083015250602082013567ffffffffffffffff81111561154457611543611413565b5b611550848285016114a4565b602083015250604082013567ffffffffffffffff81111561157457611573611413565b5b611580848285016114a4565b60408301525060606115948482850161121f565b60608301525060806115a88482850161121f565b60808301525060a06115bc848285016111e9565b60a08301525060c06115d08482850161121f565b60c08301525060e082013567ffffffffffffffff8111156115f4576115f3611413565b5b611600848285016114a4565b60e08301525061010082013567ffffffffffffffff81111561162557611624611413565b5b611631848285016114a4565b6101008301525061012082013567ffffffffffffffff81111561165757611656611413565b5b611663848285016114a4565b6101208301525061014082013567ffffffffffffffff81111561168957611688611413565b5b611695848285016114a4565b6101408301525061016082013567ffffffffffffffff8111156116bb576116ba611413565b5b6116c7848285016114a4565b6101608301525092915050565b6000602082840312156116ea576116e9611196565b5b600082013567ffffffffffffffff8111156117085761170761119b565b5b611714848285016114d2565b91505092915050565b600060208201905061173260008301846112e6565b92915050565b6000806000806080858703121561175257611751611196565b5b6000611760878288016111e9565b9450506020611771878288016111e9565b9350506040611782878288016111e9565b92505060606117938782880161121f565b91505092959194509250565b6000806000606084860312156117b8576117b7611196565b5b60006117c6868287016111e9565b93505060206117d78682870161121f565b92505060406117e88682870161121f565b9150509250925092565b6000806040838503121561180957611808611196565b5b6000611817858286016111e9565b9250506020611828858286016111e9565b9150509250929050565b600081519050919050565b600082825260208201905092915050565b60005b8381101561186c578082015181840152602081019050611851565b60008484015250505050565b600061188382611832565b61188d818561183d565b935061189d81856020860161184e565b6118a681611387565b840191505092915050565b60006101808201905081810360008301526118cc818f611878565b905081810360208301526118e0818e611878565b905081810360408301526118f4818d611878565b9050611903606083018c6112e6565b611910608083018b6112e6565b61191d60a083018a6112d7565b61192a60c08301896112e6565b81810360e083015261193c8188611878565b90508181036101008301526119518187611878565b90508181036101208301526119668186611878565b905081810361014083015261197b8185611878565b90508181036101608301526119908184611878565b90509d9c50505050505050505050505050565b7f456e737461723a20464f5242494444454e000000000000000000000000000000600082015250565b60006119d960118361183d565b91506119e4826119a3565b602082019050919050565b60006020820190508181036000830152611a08816119cc565b9050919050565b7f4e487b7100000000000000000000000000000000000000000000000000000000600052603260045260246000fd5b7f4e487b7100000000000000000000000000000000000000000000000000000000600052601160045260246000fd5b6000611a78826111fe565b91507fffffffffffffffffffffffffffffffffffffffffffffffffffffffffffffffff8203611aaa57611aa9611a3e565b5b600182019050919050565b6000604082019050611aca60008301856112d7565b611ad760208301846112e6565b9392505050565b611ae781611274565b8114611af257600080fd5b50565b600081519050611b0481611ade565b92915050565b600060208284031215611b2057611b1f611196565b5b6000611b2e84828501611af5565b91505092915050565b7f4e487b7100000000000000000000000000000000000000000000000000000000600052602260045260246000fd5b60006002820490506001821680611b7e57607f821691505b602082108103611b9157611b90611b37565b5b50919050565b60008190508160005260206000209050919050565b60006020601f8301049050919050565b600082821b905092915050565b600060088302611bf97fffffffffffffffffffffffffffffffffffffffffffffffffffffffffffffffff82611bbc565b611c038683611bbc565b95508019841693508086168417925050509392505050565b6000819050919050565b6000611c40611c3b611c36846111fe565b611c1b565b6111fe565b9050919050565b6000819050919050565b611c5a83611c25565b611c6e611c6682611c47565b848454611bc9565b825550505050565b600090565b611c83611c76565b611c8e818484611c51565b505050565b5b81811015611cb257611ca7600082611c7b565b600181019050611c94565b5050565b601f821115611cf757611cc881611b97565b611cd184611bac565b81016020851015611ce0578190505b611cf4611cec85611bac565b830182611c93565b50505b505050565b600082821c905092915050565b6000611d1a60001984600802611cfc565b1980831691505092915050565b6000611d338383611d09565b9150826002028217905092915050565b611d4c82611832565b67ffffffffffffffff811115611d6557611d64611398565b5b611d6f8254611b66565b611d7a828285611cb6565b600060209050601f831160018114611dad5760008415611d9b578287015190505b611da58582611d27565b865550611e0d565b601f198416611dbb86611b97565b60005b82811015611de357848901518255600182019150602085019450602081019050611dbe565b86831015611e005784890151611dfc601f891682611d09565b8355505b6001600288020188555050505b505050505050565b6000606082019050611e2a60008301866112d7565b611e3760208301856112d7565b611e4460408301846112e6565b949350505050565b7f5f7472616e736665720000000000000000000000000000000000000000000000600082015250565b6000611e8260098361183d565b9150611e8d82611e4c565b602082019050919050565b60006080820190508181036000830152611eb181611e75565b9050611ec060208301866112d7565b611ecd60408301856112d7565b611eda60608301846112e6565b949350505050565b6000611eed826111fe565b9150611ef8836111fe565b9250828201905080821115611f1057611f0f611a3e565b5b92915050565b600081519050611f2581611208565b92915050565b600060208284031215611f4157611f40611196565b5b6000611f4f84828501611f16565b91505092915050565b600081519050919050565b600081905092915050565b6000611f7982611f58565b611f838185611f63565b9350611f9381856020860161184e565b80840191505092915050565b6000611fab8284611f6e565b915081905092915050565b7f5354000000000000000000000000000000000000000000000000000000000000600082015250565b6000611fec60028361183d565b9150611ff782611fb6565b602082019050919050565b6000602082019050818103600083015261201b81611fdf565b905091905056fea264697066735822122069c2201537f0dc8f627765c4afcdc6d7957b6f01ad14f3cfe056e7083c632ef964736f6c63430008110033",
  "immutableReferences": {},
  "source": "/*\r\n * @Descripttion: enstar\r\n * @version: 1.0\r\n * @Author: pc,fsl,rli07\r\n * @Date: 2023-01-07 16:05:15\r\n * @LastEditors: rli07\r\n * @LastEditTime: 2023-01-08 12:45:01\r\n */\r\n\r\n// SPDX-License-Identifier: GPL-2.0-or-later\r\npragma solidity >=0.8.0;\r\n\r\nimport './interfaces/IEnstarV1Project.sol';\r\nimport '@openzeppelin/contracts/token/ERC20/IERC20.sol';\r\n\r\ncontract EnstarV1Project is IEnstarV1Project{\r\n\r\n    event Transfer(string message, address from, address to, uint256 amount);\r\n\r\n    Project public project;\r\n\r\n    mapping(address=>Investor) public investors;\r\n\r\n    address[] public investor_list;\r\n\r\n    address private uni_fund;\r\n\r\n    constructor(address _contract) {\r\n        uni_fund = _contract;\r\n    }\r\n\r\n\r\n    /// @inheritdoc IEnstarV1Project\r\n    function setProject(Project memory _project)\r\n        external\r\n        {\r\n            project = _project;\r\n        }\r\n\r\n\r\n    /// @inheritdoc IEnstarV1Project\r\n    function checkProjectBalance()\r\n        external\r\n        view\r\n        returns (uint256)\r\n    {\r\n        return project.balance;\r\n    }\r\n\r\n\r\n    /// @notice Get the current balance of project.\r\n    function _transfer(\r\n        address _contract,\r\n        address to,\r\n        uint256 amount\r\n    ) internal returns (bool) {\r\n        // bytes memory data = abi.encodeWithSignature(\r\n        //     \"transfer(address,uint256)\",\r\n        //     to,\r\n        //     amount\r\n        // );\r\n        // (bool success, ) = _contract.call(data);\r\n        (bool success, bytes memory data) = \r\n            _contract.call(abi.encodeWithSelector(IERC20.transfer.selector, to, amount));\r\n        require(success && (data.length == 0 || abi.decode(data, (bool))), 'ST');\r\n        emit Transfer(\"_transfer\", _contract, to, amount);\r\n        return success;\r\n    }\r\n\r\n\r\n    /// test\r\n    function transferTest(\r\n        address _contract,\r\n        address sender,\r\n        address to,\r\n        uint256 amount\r\n    ) external returns (bool) {\r\n        IERC20(_contract).transferFrom(sender, to, amount);\r\n        emit Transfer(\"_transfer\", _contract, to, amount);\r\n        return true;\r\n    }\r\n    \r\n\r\n    /// test\r\n    function balanceOfTest(\r\n        address _contract,\r\n        address _token\r\n    ) external view returns (uint256) {\r\n        uint256 balanceToken = IERC20(_contract).balanceOf(_token);\r\n        return balanceToken;\r\n    }\r\n\r\n\r\n    /// @inheritdoc IEnstarV1Project\r\n    function authorizeInvestor(address _investor) \r\n        public \r\n        view\r\n        returns (bool)\r\n    {\r\n       if(investor_list.length>0){\r\n            for (uint i = 0;i < investor_list.length;i++){\r\n                if (investor_list[i] == _investor){\r\n                    return true;\r\n                }\r\n            }\r\n        }\r\n        return false;\r\n    }\r\n\r\n\r\n    /// @inheritdoc IEnstarV1Project\r\n    function invest(address _investor, uint256 amount, uint256 timestamp) \r\n        external \r\n        payable \r\n        returns (bool)\r\n    {\r\n        bool success = _transfer(_investor, uni_fund, amount);\r\n        if(success){\r\n            //record investor\r\n            bool recorded = authorizeInvestor(_investor);\r\n            if(!recorded){\r\n                investor_list.push(_investor);\r\n                investors[_investor] = Investor(_investor,amount,timestamp,timestamp);\r\n            }else{\r\n                //If it has been recorded, the amount is accumulated.\r\n                Investor storage iv = investors[_investor];\r\n                iv.amount += amount;\r\n                iv.update_time = timestamp;\r\n                investors[_investor] = iv;\r\n            }\r\n\r\n            //record project\r\n            project.balance += amount;\r\n        }\r\n\r\n        return success;\r\n    }\r\n\r\n    /// @inheritdoc IEnstarV1Project\r\n    function investorWithdraw(address _erc20Addr, uint256 _amount) external returns (bool){\r\n        require(authorizeInvestor(tx.origin) == true, 'Enstar: FORBIDDEN');\r\n        //TODO\r\n        return true;\r\n    }\r\n\r\n    /// @inheritdoc IEnstarV1Project\r\n    function projectWithdraw(address _erc20Addr) external returns (bool){\r\n        require(tx.origin == uni_fund, 'Enstar: FORBIDDEN');\r\n        IERC20(_erc20Addr).transfer(tx.origin, (address(this)).balance);\r\n        return true;\r\n    }\r\n\r\n\r\n\r\n}",
  "sourcePath": "D:\\solidityWorkSpace\\enstart\\enstar-v1-core\\contracts\\EnstarV1Project.sol",
  "compiler": {
    "name": "solc",
    "version": "0.8.17+commit.8df45f5f.Emscripten.clang"
  },
  "schemaVersion": "3.4.11",
  "updatedAt": "2023-01-12T20:34:53.603Z",
  "networkType": "ethereum",
  "devdoc": {
    "kind": "dev",
    "methods": {},
    "version": 1
  },
  "userdoc": {
    "kind": "user",
    "methods": {
      "authorizeInvestor(address)": {
        "notice": "Authority of identifying investors."
      },
      "balanceOfTest(address,address)": {
        "notice": "test"
      },
      "checkProjectBalance()": {
        "notice": "Get the current balance of project."
      },
      "invest(address,uint256,uint256)": {
        "notice": "Investor purchase share of project."
      },
      "investorWithdraw(address,uint256)": {
        "notice": "Investor withdraw"
      },
      "projectWithdraw(address)": {
        "notice": "project withdraw"
      },
      "setProject((string,string,string,uint256,uint256,address,uint256,string,string,string,string,string))": {
        "notice": "set the project information."
      },
      "transferTest(address,address,address,uint256)": {
        "notice": "test"
      }
    },
    "version": 1
  }
}