{
  "contractName": "EnstarV1ProjectDeployer",
  "abi": [
    {
      "inputs": [],
      "name": "parameters",
      "outputs": [
        {
          "internalType": "address",
          "name": "factory",
          "type": "address"
        },
        {
          "internalType": "address",
          "name": "tokenCP",
          "type": "address"
        },
        {
          "internalType": "address",
          "name": "tokenVC",
          "type": "address"
        },
        {
          "internalType": "uint24",
          "name": "fee",
          "type": "uint24"
        }
      ],
      "stateMutability": "view",
      "type": "function",
      "constant": true
    }
  ],
  "bytecode": "0x608060405234801561001057600080fd5b506101b8806100206000396000f3fe608060405234801561001057600080fd5b506004361061002b5760003560e01c80638903573014610030575b600080fd5b610038610051565b604051610048949392919061013d565b60405180910390f35b60008060000160009054906101000a900473ffffffffffffffffffffffffffffffffffffffff16908060010160009054906101000a900473ffffffffffffffffffffffffffffffffffffffff16908060020160009054906101000a900473ffffffffffffffffffffffffffffffffffffffff16908060020160149054906101000a900462ffffff16905084565b600073ffffffffffffffffffffffffffffffffffffffff82169050919050565b6000610109826100de565b9050919050565b610119816100fe565b82525050565b600062ffffff82169050919050565b6101378161011f565b82525050565b60006080820190506101526000830187610110565b61015f6020830186610110565b61016c6040830185610110565b610179606083018461012e565b9594505050505056fea2646970667358221220381b435ab6a98c4cef3c967a1ca198ba9784a4bd5833cb9bc085934ef39d5f9d64736f6c63430008110033",
  "immutableReferences": {},
  "source": "// SPDX-License-Identifier: BUSL-1.1\npragma solidity >=0.8.0;\n\nimport './interfaces/IEnstarV1ProjectDeployer.sol';\n\nimport './EnstarV1Project.sol';\n\ncontract EnstarV1ProjectDeployer is IEnstarV1ProjectDeployer {\n    struct Parameters {\n        address factory;\n        address tokenCP;\n        address tokenVC;\n        uint24 fee;\n    }\n\n    /// @inheritdoc IEnstarV1ProjectDeployer\n    Parameters public override parameters;\n\n    /// @dev Deploys a pool with the given parameters by transiently setting the parameters storage slot and then\n    /// clearing it after deploying the pool.\n    function deploy(\n        address factory,\n        address tokenCP,\n        address tokenVC,\n        uint24 fee\n    ) internal returns (address pool) {\n        parameters = Parameters({factory: factory, tokenCP: tokenCP, tokenVC: tokenVC, fee: fee});\n        pool = address(new EnstarV1Project{salt: keccak256(abi.encode(tokenCP, tokenVC, fee))}());\n        delete parameters;\n    }\n}",
  "sourcePath": "/home/rli07/workspace/evm/enstar/v1-core/contracts/EnstarV1ProjectDeployer.sol",
  "compiler": {
    "name": "solc",
    "version": "0.8.17+commit.8df45f5f.Emscripten.clang"
  },
  "schemaVersion": "3.4.11",
  "updatedAt": "2022-12-16T16:04:54.404Z",
  "networkType": "ethereum",
  "devdoc": {
    "kind": "dev",
    "methods": {},
    "stateVariables": {
      "parameters": {
        "details": "Called by the pool constructor to fetch the parameters of the pool Returns factory The factory address Returns tokenCP The token of the project Returns tokenVC The token of the VC's contract Returns fee The fee collected upon every redeem in the project"
      }
    },
    "version": 1
  },
  "userdoc": {
    "kind": "user",
    "methods": {
      "parameters()": {
        "notice": "Get the parameters to be used in constructing the project pool, set transiently during pool creation."
      }
    },
    "version": 1
  }
}